:100000000C94E4000C9405010C9405010C9405017A
:100010000C9405010C9405010C9405010C94050148
:100020000C9405010C9405010C9405010C94050138
:100030000C9405010C9405010C9405010C94050128
:100040000C9405010C9405010C9405010C94050118
:100050000C9405010C9405010C9405010C94050108
:100060000C9405010C9405010C9405010C940501F8
:100070000C9405010C9405010C9405010C940501E8
:100080000C9405010C9405010C9405010C940501D8
:100090000C9405010C9405010C9405010C940501C8
:1000A0000C9405010C9405010C9405010C940501B8
:1000B0000C9405010C9405010C9405010C940501A8
:1000C0000C9405010C9405010C9405010C94050198
:1000D0000C9405010C9405010C9405010C94050188
:1000E0000C9405010C9405010C9405010C94050178
:1000F0000C9405010C9405010C9405010C94050168
:100100000C9405010C9405010C9405010C94050157
:100110000C9405010C9405010C9405010C94050147
:100120000C9405010C9405010C9405010C94050137
:100130000C9405010C9405010C9405010C94050127
:100140000C9405010C9405010C9405010C94050117
:100150000C9405010C9405010C9405010C94050107
:100160000C9405010C9405010C9405010C940501F7
:100170000C9405010C9405010C9405010C940501E7
:100180000C9405010C9405010C9405010C940501D7
:100190000C9405010C9405010C9405010C940501C7
:1001A0000C9405010C9405010C9405010C940501B7
:1001B0000C9405010C9405010C9405010C940501A7
:1001C0000C9405010C94050111241FBECFEFCDBF87
:1001D000DFE3DEBF00E00CBF10E2A0E0B0E2EEE43F
:1001E000FEE800E00BBF02C007900D92A032B107FD
:1001F000D9F723E2A0E2B0E201C01D92A13BB20711
:10020000E1F70E94AF460C9425470C940000CF9371
:10021000DF93FA0120E030E026173707F8F4DC011D
:10022000A20FB31FCC91CA3328F0C062D0E0C755EB
:10023000D10902C0D0E0E0971196AC91AA3328F022
:10024000A062B0E0A755B10902C0B0E0D097C29556
:10025000C07FCA2BC1932E5F3F4FDECFCA01DF9113
:10026000CF9108951F93CF93DF93FA01319620E049
:1002700030E026173707C9F0EC01DC011D91CD01F4
:1002800012951F70A12FB0E0A05FBF4D1C91DF0140
:1002900011971C93A881AF70B0E0A05FBF4DAC91E7
:1002A000A0832F5F3F4F3296E4CFF901EE0FFF1F7F
:1002B000E40FF51F1082DF91CF911F9108950895EB
:1002C000BC0180EB90E20C949B4660EB70E20C94D6
:1002D000AD46E0E4F6E088E0818384E08283E0EAF2
:1002E000F8E083E085838BE08683178284818061D8
:1002F00084838481886084830895CF93DF931F92E1
:100300001F92CDB7DEB769837A8320E030E0498160
:100310005A812417350769F04091A10847FF06C0AC
:100320002091A008FC01208381E004C02F5F3F4F93
:10033000EECF80E00F900F90DF91CF9108958091E4
:10034000A10887FFFCCF8091A00808959091A10893
:1003500095FFFCCF8093A0080895FC016083718312
:10036000428314861386168615860895FC016283DF
:100370000895FC01258596852F5F237081E0291360
:1003800001C080E008950F931F93CF93DF931F92D6
:10039000CDB7DEB78C0169830E94B90169818823DA
:1003A000A9F0D8011D969C911D97F801E90FF11D48
:1003B00067839F5F9370F80195870190F081E02D2E
:1003C00093819C7F12962C91922B93830F90DF91B7
:1003D000CF911F910F910895FC012385948581E0B1
:1003E000291301C080E00895FC018485DF01A80F76
:1003F000B11D13968C9194859F5F93709487089597
:10040000FC0183858F5F83702485A081B1819C91DD
:10041000821749F02385DF01A20FB11D13969C932B
:10042000838781E0089580E00895CF93DF93FC01F6
:1004300086859585A081B181981307C013968C910C
:1004400013978C7F13968C930AC08685EF01C80F93
:10045000D11D8F818C9386858F5F83708687DF9116
:10046000CF910895FC01848170FF02C0816001C0BA
:100470008E7F848360830895FC01848180FF04C0A3
:10048000808190E091600895808190E008951092BD
:100490005200109255008091500088608093500067
:1004A0008091510083FFFCCF88ED84BF83E080936F
:1004B000400088E08093500080E68093010680939E
:1004C000050608952F923F924F925F926F927F920E
:1004D0008F929F92AF92BF92CF92DF92EF92FF9254
:1004E0000F931F93CF93DF931C01FB01DC014D9011
:1004F0005D906D907C90139714968D919D910D90C9
:10050000BC91A02DE101488559856A857B85CC8405
:10051000DD84EE84FF840489158926893789C02605
:10052000D126E226F32600891189228933890427FE
:10053000152726273727C00ED11EE21EF31E97016E
:100540008601C3E03695279517950795CA95D1F78B
:10055000DDE1CC0CDD1CEE1CFF1CDA95D1F7C02AC6
:10056000D12AE22AF32A84849584A684B784842637
:100570009526A626B726408551856285738548272E
:1005800059276A277B27840E951EA61EB71EB50124
:10059000A40115E076956795579547951A95D1F77B
:1005A0000BE1880C991CAA1CBB1C0A95D1F7842A64
:1005B000952AA62AB72A0481158126813781082722
:1005C00019272A273B2780819181A281B381842525
:1005D0009525A625B725080F191F2A1F3B1FD901EE
:1005E000C80147E1B695A795979587954A95D1F7A4
:1005F00059E0000F111F221F331F5A95D1F7082B06
:10060000192B2A2B3B2B40A551A562A573A54C2580
:100610005D256E257F2584A595A5A6A5B7A584256E
:100620009525A625B725480F591F6A1F7B1FDB019B
:10063000CA01C3E0B695A79597958795CA95D1F756
:10064000DDE1440F551F661F771FDA95D1F7482B60
:10065000592B6A2B7B2B84A195A1A6A1B7A18C2530
:100660009D25AE25BF25C0A0D1A0E2A0F3A0C8243F
:10067000D924EA24FB248C0D9D1DAE1DBF1D6C01E9
:100680007D01C5E0F694E794D794C794CA95D1F755
:10069000DBE1880F991FAA1FBB1FDA95D1F78C29C0
:1006A0009D29AE29BF29C48CD58CE68CF78CC82433
:1006B000D924EA24FB24808C918CA28CB38C8026D4
:1006C0009126A226B326C80CD91CEA1CFB1C4601A5
:1006D0005701C7E1B694A79497948794CA95D1F728
:1006E000D9E0CC0CDD1CEE1CFF1CDA95D1F7C82834
:1006F000D928EA28FB28EF01C05CDF4F8880998069
:10070000AA80BB8084269526A626B72624964880F4
:1007100059806A807B804026512662267326840C8D
:10072000951CA61CB71C95018401689412F8369597
:100730002795179507951694D1F7072E7DE1880C1C
:10074000991CAA1CBB1C7A95D1F7702D802A912A7E
:10075000A22AB32A04AD15AD26AD37AD042715275F
:100760002627372740AD51AD62AD73AD48275927D5
:100770006A277B27040F151F261F371FB901A80101
:10078000689414F876956795579547951694D1F720
:100790000F2EFBE1000F111F221F331FFA95D1F717
:1007A000F02D042B152B262B372B44A855A866A813
:1007B00077A8482659266A267B2680A991A9A2A94E
:1007C000B3A98C259D25AE25BF25480E591E6A1E4E
:1007D0007B1ED301C20147E1B695A79597958795F2
:1007E0004A95D1F759E0440C551C661C771C5A9564
:1007F000D1F7482A592A6A2A7B2ADF01A85ABF4F13
:100800004D915D916D917C911397482559256A25ED
:100810007B2514968D919D910D90BC91A02D8C25DA
:100820009D25AE25BF25480F591F6A1F7B1FDB0181
:10083000CA01689412F8B695A7959795879516946E
:10084000D1F7032E3DE1440F551F661F771F3A95E0
:10085000D1F7302D482B592B6A2B7B2BDF01AC5A5B
:10086000BF4FCD90DD90ED90FC901397C824D92414
:10087000EA24FB2414978D919D910D90BC91A02D9D
:1008800080279127A227B327C80ED91EEA1EFB1E78
:10089000D701C601689414F8B695A79597958795E2
:1008A0001694D1F70B2EBBE1CC0CDD1CEE1CFF1C0B
:1008B000BA95D1F7B02DC82AD92AEA2AFB2ADF0136
:1008C000A45BBF4F8D909D90AD90BC9013978026F8
:1008D0009126A226B32614978D919D910D90BC91DF
:1008E000A02D84259525A625B725880E991EAA1E1C
:1008F000BB1ED501C40127E1B695A79597958795AD
:100900002A95D1F739E0880C991CAA1CBB1C3A9592
:10091000D1F7882A992AAA2ABB2ADF01A059BF4FFA
:100920000D911D912D913C91139704271527262792
:10093000372714968D919D910D90BC91A02D842503
:100940009525A625B725080F191F2A1F3B1FD9017A
:10095000C801689412F8B695A7959795879516944F
:10096000D1F70F2EFDE1000F111F221F331FFA9543
:10097000D1F7F02D082B192B2A2B3B2BDF01A45983
:10098000BF4F4D905D906D907C90139744265526F7
:100990006626772614978D919D910D90BC91A02D80
:1009A0008C259D25AE25BF25480E591E6A1E7B1E2F
:1009B000D301C20145E0B695A795979587954A95CD
:1009C000D1F75BE1440C551C661C771C5A95D1F796
:1009D000482A592A6A2A7B2ADF01AC59BF4F4D9118
:1009E0005D916D917C9113974C255D256E257F253A
:1009F00014978D919D910D90BC91A02D88259925DE
:100A0000AA25BB25480F591F6A1F7B1FDB01CA019E
:100A1000072E77E1B695A795979587957A95D1F7A3
:100A2000702D032E39E0440F551F661F771F3A952E
:100A3000D1F7302D482B592B6A2B7B2BDF01A85780
:100A4000BF4FCD90DD90ED90FC901397C026D1263E
:100A5000E226F32614968D919D910D90BC91A02DC8
:100A600088259925AA25BB25C80ED91EEA1EFB1E7E
:100A7000D701C601689412F8B695A7959795879502
:100A80001694D1F70B2EBDE1CC0CDD1CEE1CFF1C27
:100A9000BA95D1F7B02DC82AD92AEA2AFB2ADF0154
:100AA000AC57BF4F8D909D90AD90BC901397802612
:100AB0009126A226B32614978D919D910D90BC91FD
:100AC000A02D84259525A625B725880E991EAA1E3A
:100AD000BB1ED501C40125E0B695A79597958795CE
:100AE0002A95D1F73BE1880C991CAA1CBB1C3A95AE
:100AF000D1F7882A992AAA2ABB2ADF01A458BF4F16
:100B00000D911D912D913C911397042515252625B6
:100B1000372514978D919D910D90BC91A02D842720
:100B20009527A627B727080F191F2A1F3B1FD90192
:100B3000C801072E77E1B695A795979587957A9581
:100B4000D1F7702D0F2EF9E0000F111F221F331F58
:100B5000FA95D1F7F02D082B192B2A2B3B2BDF010F
:100B6000A056BF4F4D905D906D907C9013974C2494
:100B70005D246E247F2414968D919D910D90BC91DF
:100B8000A02D84279527A627B727480E591E6A1E31
:100B90007B1ED301C20143E0B695A7959795879533
:100BA0004A95D1F75DE1440C551C661C771C5A959B
:100BB000D1F7482A592A6A2A7B2ADF01A456BF4F57
:100BC0004D915D916D917C9113974C255D256E251E
:100BD0007F2514978D919D910D90BC91A02D882516
:100BE0009925AA25BB25480F591F6A1F7B1FDB01CA
:100BF000CA01689414F8B695A795979587951694A9
:100C0000D1F7032E3BE1440F551F661F771F3A951E
:100C1000D1F7302D482B592B6A2B7B2BDF01AC569B
:100C2000BF4FCD90DD90ED90FC901397C824D92450
:100C3000EA24FB2414978D919D910D90BC91A02DD9
:100C400080279127A227B327C80ED91EEA1EFB1EB4
:100C5000D701C601072E77E1B695A7959795879599
:100C60007A95D1F7702D0B2EB9E0CC0CDD1CEE1C63
:100C7000FF1CBA95D1F7B02DC82AD92AEA2AFB2A37
:100C8000DF01A854BF4F8D909D90AD90BC901397FD
:100C900084249524A624B72414968D919D910D90BB
:100CA000BC91A02D80279127A227B327880E991EDB
:100CB000AA1EBB1ED501C40123E0B695A795979542
:100CC00087952A95D1F73DE1880C991CAA1CBB1C7D
:100CD0003A95D1F7882A992AAA2ABB2ADF01AC546F
:100CE000BF4F0D911D912D913C9113970425152512
:100CF0002625372514978D919D910D90BC91A02D9F
:100D000084279527A627B727080F191F2A1F3B1FDF
:100D1000D901C801689414F8B695A7959795879559
:100D20001694D1F70F2EFBE1000F111F221F331F66
:100D3000FA95D1F7F02D082B192B2A2B3B2BDF012D
:100D4000A455BF4F4D905D906D907C9013974426B5
:100D500055266626772614978D919D910D90BC910E
:100D6000A02D8C259D25AE25BF25480E591E6A1E37
:100D70007B1ED301C20147E1B695A795979587954C
:100D80004A95D1F759E0440C551C661C771C5A95BE
:100D9000D1F7482A592A6A2A7B2ADF01A053BF4F7C
:100DA0004D915D916D917C911397482559256A2548
:100DB0007B2514968D919D910D90BC91A02D8C2535
:100DC0009D25AE25BF25480F591F6A1F7B1FDB01DC
:100DD000CA01689412F8B695A795979587951694C9
:100DE000D1F7032E3DE1440F551F661F771F3A953B
:100DF000D1F7302D482B592B6A2B7B2BDF01A453C5
:100E0000BF4FCD90DD90ED90FC901397C824D9246E
:100E1000EA24FB2414978D919D910D90BC91A02DF7
:100E200080279127A227B327C80ED91EEA1EFB1ED2
:100E3000D701C601689414F8B695A795979587953C
:100E40001694D1F70B2EBBE1CC0CDD1CEE1CFF1C65
:100E5000BA95D1F7B02DC82AD92AEA2AFB2ADF0190
:100E6000AC53BF4F8D909D90AD90BC901397802652
:100E70009126A226B32614978D919D910D90BC9139
:100E8000A02D84259525A625B725880E991EAA1E76
:100E9000BB1ED501C40127E1B695A7959795879507
:100EA0002A95D1F739E0880C991CAA1CBB1C3A95ED
:100EB000D1F7882A992AAA2ABB2ADF01A851BF4F55
:100EC0000D911D912D913C911397042715272627ED
:100ED000372714968D919D910D90BC91A02D84255E
:100EE0009525A625B725080F191F2A1F3B1FD901D5
:100EF000C801689412F8B695A795979587951694AA
:100F0000D1F70F2EFDE1000F111F221F331FFA959D
:100F1000D1F7F02D082B192B2A2B3B2BDF01AC51DD
:100F2000BF4F4D905D906D907C9013974426552651
:100F30006626772614978D919D910D90BC91A02DDA
:100F40008C259D25AE25BF25480E591E6A1E7B1E89
:100F5000D301C20145E0B695A795979587954A9527
:100F6000D1F75BE1440C551C661C771C5A95D1F7F0
:100F7000482A592A6A2A7B2ADF01A452BF4F4D9181
:100F80005D916D917C9113974C255D256E257F2594
:100F900014978D919D910D90BC91A02D8825992538
:100FA000AA25BB25480F591F6A1F7B1FDB01CA01F9
:100FB000072E77E1B695A795979587957A95D1F7FE
:100FC000702D032E39E0440F551F661F771F3A9589
:100FD000D1F7302D482B592B6A2B7B2BDF01B39592
:100FE000CD90DD90ED90FC901397C026D126E2269F
:100FF000F32614968D919D910D90BC91A02D88257E
:101000009925AA25BB25C80ED91EEA1EFB1ED701AD
:10101000C601689412F8B695A7959795879516948A
:10102000D1F70B2EBDE1CC0CDD1CEE1CFF1CBA95DC
:10103000D1F7B02DC82AD92AEA2AFB2ADF01A45009
:10104000BF4F8D909D90AD90BC90139780269126B8
:10105000A226B32614978D919D910D90BC91A02D41
:1010600084259525A625B725880E991EAA1EBB1E88
:10107000D501C40125E0B695A795979587952A9542
:10108000D1F73BE1880C991CAA1CBB1C3A95D1F7FF
:10109000882A992AAA2ABB2ADF01AC50BF4F0D919A
:1010A0001D912D913C911397042515252625372553
:1010B00014978D919D910D90BC91A02D842795271B
:1010C000A627B727080F191F2A1F3B1FD901C801E0
:1010D000072E77E1B695A795979587957A95D1F7DD
:1010E000702D0F2EF9E0000F111F221F331FFA95EC
:1010F000D1F7F02D082B192B2A2B3B2BDF01A85EF3
:10110000BE4F4D905D906D907C9013974C245D2464
:101110006E247F2414968D919D910D90BC91A02DED
:1011200084279527A627B727480E591E6A1E7B1EBF
:10113000D301C20143E0B695A795979587954A9547
:10114000D1F75DE1440C551C661C771C5A95D1F70C
:10115000482A592A6A2A7B2ADF01AC5EBE4F4D918C
:101160005D916D917C9113974C255D256E257F25B2
:1011700014978D919D910D90BC91A02D8825992556
:10118000AA25BB25480F591F6A1F7B1FDB01CA0117
:10119000689414F8B695A795979587951694D1F706
:1011A000032E3BE1440F551F661F771F3A95D1F779
:1011B000302D482B592B6A2B7B2BDF01A45FBE4FB0
:1011C000CD90DD90ED90FC901397C824D924EA24AB
:1011D000FB2414978D919D910D90BC91A02D80279B
:1011E0009127A227B327C80ED91EEA1EFB1ED701DE
:1011F000C601072E77E1B695A795979587957A95BD
:10120000D1F7702D0B2EB9E0CC0CDD1CEE1CFF1CB1
:10121000BA95D1F7B02DC82AD92AEA2AFB2ADF01CC
:10122000A05DBE4F8D909D90AD90BC90139784248F
:101230009524A624B72414968D919D910D90BC9170
:10124000A02D80279127A227B327880E991EAA1EBA
:10125000BB1ED501C40123E0B695A7959795879548
:101260002A95D1F73DE1880C991CAA1CBB1C3A9524
:10127000D1F7882A992AAA2ABB2ADF01A45DBE4F8A
:101280000D911D912D913C9113970425152526252F
:10129000372514978D919D910D90BC91A02D842799
:1012A0009527A627B727080F191F2A1F3B1FD9010B
:1012B000C801689414F8B695A795979587951694E4
:1012C000D1F70F2EFBE1000F111F221F331FFA95DC
:1012D000D1F7F02D082B192B2A2B3B2BDF01AC5D0E
:1012E000BE4F4D905D906D907C901397442655268F
:1012F0006626772614978D919D910D90BC91A02D17
:101300008C259D25AE25BF25480E591E6A1E7B1EC5
:10131000D301C20147E1B695A795979587954A9560
:10132000D1F759E0440C551C661C771C5A95D1F72F
:10133000482A592A6A2A7B2ADF01A85BBE4F4D91B1
:101340005D916D917C911397482559256A257B25E0
:1013500014968D919D910D90BC91A02D8C259D256D
:10136000AE25BF25480F591F6A1F7B1FDB01CA012D
:10137000689412F8B695A795979587951694D1F726
:10138000032E3DE1440F551F661F771F3A95D1F795
:10139000302D482B592B6A2B7B2BDF01AC5BBE4FCA
:1013A000CD90DD90ED90FC901397C824D924EA24C9
:1013B000FB2414978D919D910D90BC91A02D8027B9
:1013C0009127A227B327C80ED91EEA1EFB1ED701FC
:1013D000C601689414F8B695A795979587951694C5
:1013E000D1F70B2EBBE1CC0CDD1CEE1CFF1CBA951B
:1013F000D1F7B02DC82AD92AEA2AFB2ADF01A45C3A
:10140000BE4F8D909D90AD90BC90139780269126F5
:10141000A226B32614978D919D910D90BC91A02D7D
:1014200084259525A625B725880E991EAA1EBB1EC4
:10143000D501C40127E1B695A795979587952A957B
:10144000D1F739E0880C991CAA1CBB1C3A95D1F73E
:10145000882A992AAA2ABB2ADF01A05ABE4F0D91D9
:101460001D912D913C911397042715272627372787
:1014700014968D919D910D90BC91A02D842595255C
:10148000A625B725080F191F2A1F3B1FD901C80120
:10149000689412F8B695A795979587951694D1F705
:1014A0000F2EFDE1000F111F221F331FFA95D1F7F8
:1014B000F02D082B192B2A2B3B2BDF01A45ABE4FF2
:1014C0004D905D906D907C9013974426552666262E
:1014D000772614978D919D910D90BC91A02D8C2510
:1014E0009D25AE25BF25480E591E6A1E7B1ED301C1
:1014F000C20145E0B695A795979587954A95D1F78E
:101500005BE1440C551C661C771C5A95D1F7482AA0
:10151000592A6A2A7B2ADF01AC5ABE4F4D915D9150
:101520006D917C9113974C255D256E257F25149731
:101530008D919D910D90BC91A02D88259925AA256E
:10154000BB25480F591F6A1F7B1FDB01CA01072EED
:1015500077E1B695A795979587957A95D1F7702DF0
:10156000032E39E0440F551F661F771F3A95D1F7B8
:10157000302D482B592B6A2B7B2BDF01A858BE4FEF
:10158000CD90DD90ED90FC901397C026D126E226F9
:10159000F32614968D919D910D90BC91A02D8825D8
:1015A0009925AA25BB25C80ED91EEA1EFB1ED70108
:1015B000C601689412F8B695A795979587951694E5
:1015C000D1F70B2EBDE1CC0CDD1CEE1CFF1CBA9537
:1015D000D1F7B02DC82AD92AEA2AFB2ADF01AC5854
:1015E000BE4F8D909D90AD90BC9013978026912614
:1015F000A226B32614978D919D910D90BC91A02D9C
:1016000084259525A625B725880E991EAA1EBB1EE2
:10161000D501C40125E0B695A795979587952A959C
:10162000D1F73BE1880C991CAA1CBB1C3A95D1F759
:10163000882A992AAA2ABB2ADF01A459BE4F0D91F4
:101640001D912D913C9113970425152526253725AD
:1016500014978D919D910D90BC91A02D8427952775
:10166000A627B727080F191F2A1F3B1FD901C8013A
:10167000072E77E1B695A795979587957A95D1F737
:10168000702D0F2EF9E0000F111F221F331FFA9546
:10169000D1F7F02D082B192B2A2B3B2BDF01A0575C
:1016A000BE4F4D905D906D907C9013974C245D24BF
:1016B0006E247F2414968D919D910D90BC91A02D48
:1016C00084279527A627B727480E591E6A1E7B1E1A
:1016D000D301C20143E0B695A795979587954A95A2
:1016E000D1F75DE1440C551C661C771C5A95D1F767
:1016F000482A592A6A2A7B2ADF01A457BE4F4D91F6
:101700005D916D917C9113974C255D256E257F250C
:1017100014978D919D910D90BC91A02D88259925B0
:10172000AA25BB25480F591F6A1F7B1FDB01CA0171
:10173000689414F8B695A795979587951694D1F760
:10174000032E3BE1440F551F661F771F3A95D1F7D3
:10175000302D482B592B6A2B7B2BDF01AC57BE4F0A
:10176000CD90DD90ED90FC901397C824D924EA2405
:10177000FB2414978D919D910D90BC91A02D8027F5
:101780009127A227B327C80ED91EEA1EFB1ED70138
:10179000C601072E77E1B695A795979587957A9517
:1017A000D1F7702D0B2EB9E0CC0CDD1CEE1CFF1C0C
:1017B000BA95D1F7B02DC82AD92AEA2AFB2ADF0127
:1017C000A855BE4F8D909D90AD90BC9013978424EA
:1017D0009524A624B72414968D919D910D90BC91CB
:1017E000A02D80279127A227B327880E991EAA1E15
:1017F000BB1ED501C40123E0B695A79597958795A3
:101800002A95D1F73DE1880C991CAA1CBB1C3A957E
:10181000D1F7882A992AAA2ABB2ADF01AC55BE4FE4
:101820000D911D912D913C91139704251525262589
:10183000372514978D919D910D90BC91A02D8427F3
:101840009527A627B727080F191F2A1F3B1FD90165
:10185000C801689414F8B695A7959795879516943E
:10186000D1F70F2EFBE1000F111F221F331FFA9536
:10187000D1F7F02D082B192B2A2B3B2BDF01A45677
:10188000BE4F4D905D906D907C90139744265526E9
:101890006626772614978D919D910D90BC91A02D71
:1018A0008C259D25AE25BF25480E591E6A1E7B1E20
:1018B000D301C20147E1B695A795979587954A95BB
:1018C000D1F759E0440C551C661C771C5A95D1F78A
:1018D000482A592A6A2A7B2ADF01A054BE4F4D911B
:1018E0005D916D917C911397482559256A257B253B
:1018F00014968D919D910D90BC91A02D8C259D25C8
:10190000AE25BF25480F591F6A1F7B1FDB01CA0187
:10191000689412F8B695A795979587951694D1F780
:10192000032E3DE1440F551F661F771F3A95D1F7EF
:10193000302D482B592B6A2B7B2BDF01A454BE4F33
:10194000CD90DD90ED90FC901397C824D924EA2423
:10195000FB2414978D919D910D90BC91A02D802713
:101960009127A227B327C80ED91EEA1EFB1ED70156
:10197000C601689414F8B695A7959795879516941F
:10198000D1F70B2EBBE1CC0CDD1CEE1CFF1CBA9575
:10199000D1F7B02DC82AD92AEA2AFB2ADF01AC5494
:1019A000BE4F8D909D90AD90BC9013978026912650
:1019B000A226B32614978D919D910D90BC91A02DD8
:1019C00084259525A625B725880E991EAA1EBB1E1F
:1019D000D501C40127E1B695A795979587952A95D6
:1019E000D1F739E0880C991CAA1CBB1C3A95D1F799
:1019F000882A992AAA2ABB2ADF01A852BE4F0D9134
:101A00001D912D913C9113970427152726273727E1
:101A100014968D919D910D90BC91A02D84259525B6
:101A2000A625B725080F191F2A1F3B1FD901C8017A
:101A3000689412F8B695A795979587951694D1F75F
:101A40000F2EFDE1000F111F221F331FFA95D1F752
:101A5000F02D082B192B2A2B3B2BDF01AC52BE4F4C
:101A60004D905D906D907C90139744265526662688
:101A7000772614978D919D910D90BC91A02D8C256A
:101A80009D25AE25BF25480E591E6A1E7B1ED3011B
:101A9000C20145E0B695A795979587954A95D1F7E8
:101AA0005BE1440C551C661C771C5A95D1F7482AFB
:101AB000592A6A2A7B2ADF01A453BE4F4D915D91BA
:101AC0006D917C9113974C255D256E257F2514978C
:101AD0008D919D910D90BC91A02D88259925AA25C9
:101AE000BB25480F591F6A1F7B1FDB01CA01072E48
:101AF00077E1B695A795979587957A95D1F7702D4B
:101B0000032E39E0440F551F661F771F3A95D1F712
:101B1000302D482B592B6A2B7B2BDF01A051BE4F58
:101B2000CD90DD90ED90FC901397C026D126E22653
:101B3000F32614968D919D910D90BC91A02D882532
:101B40009925AA25BB25C80ED91EEA1EFB1ED70162
:101B5000C601689412F8B695A7959795879516943F
:101B6000D1F70B2EBDE1CC0CDD1CEE1CFF1CBA9591
:101B7000D1F7B02DC82AD92AEA2AFB2ADF01A451BD
:101B8000BE4F8D909D90AD90BC901397802691266E
:101B9000A226B32614978D919D910D90BC91A02DF6
:101BA00084259525A625B725880E991EAA1EBB1E3D
:101BB000D501C40125E0B695A795979587952A95F7
:101BC000D1F73BE1880C991CAA1CBB1C3A95D1F7B4
:101BD000882A992AAA2ABB2ADF01AC51BE4F0D914F
:101BE0001D912D913C911397042515252625372508
:101BF00014978D919D910D90BC91A02D84279527D0
:101C0000A627B727080F191F2A1F3B1FD901C80194
:101C1000072E77E1B695A795979587957A95D1F791
:101C2000702D0F2EF9E0000F111F221F331FFA95A0
:101C3000D1F7F02D082B192B2A2B3B2BDF01A85FA6
:101C4000BD4F4D905D906D907C9013974C245D241A
:101C50006E247F2414968D919D910D90BC91A02DA2
:101C600084279527A627B727480E591E6A1E7B1E74
:101C7000D301C20143E0B695A795979587954A95FC
:101C8000D1F75DE1440C551C661C771C5A95D1F7C1
:101C9000482A592A6A2A7B2ADF01AC5FBD4F4D9141
:101CA0005D916D917C9113974C255D256E257F2567
:101CB00014978D919D910D90BC91A02D882599250B
:101CC000AA25BB25480F591F6A1F7B1FDB01CA01CC
:101CD000689414F8B695A795979587951694D1F7BB
:101CE000032E3BE1440F551F661F771F3A95D1F72E
:101CF000302D482B592B6A2B7B2BDF01A450BE4F74
:101D0000CD90DD90ED90FC901397C824D924EA245F
:101D1000FB2414978D919D910D90BC91A02D80274F
:101D20009127A227B327C80ED91EEA1EFB1ED70192
:101D3000C601072E77E1B695A795979587957A9571
:101D4000D1F7702D0B2EB9E0CC0CDD1CEE1CFF1C66
:101D5000BA95D1F7B02DC82AD92AEA2AFB2ADF0181
:101D6000A05EBD4F8D919D910D90BC91A02D8425BD
:101D70009525A625B725C052DE4F88809980AA8078
:101D8000BB8080269126A226B326880D991DAA1D08
:101D9000BB1D8C019D01689412F836952795179507
:101DA00007951694D1F74C015D018DE1880C991CC3
:101DB000AA1CBB1C8A95D1F7802A912AA22AB32A91
:101DC000DF01A45EBD4F0D911D912D913C911397A4
:101DD000042515252625372514978D919D910D9065
:101DE000BC91A02D84279527A627B727080F191F78
:101DF0002A1F3B1FD901C801689414F8B695A7950E
:101E0000979587951694D1F70F2EFBE1000F111FC0
:101E1000221F331FFA95D1F7F02D082B192B2A2BEF
:101E20003B2BDF01AC5EBD4F4D905D906D907C9083
:101E30001397442655266626772614978D919D91F3
:101E40000D90BC91A02D8C259D25AE25BF25480E5B
:101E5000591E6A1E7B1EB301A20187E17695679524
:101E6000579547958A95D1F7D301C201072E79E09E
:101E7000880F991FAA1FBB1F7A95D1F7702D842B4D
:101E8000952BA62BB72B6496488159816A817B815B
:101E9000482559256A257B252496488059806A80E3
:101EA0007B804C245D246E247F24440D551D661DCB
:101EB000771D6A017B01689412F8F694E794D79431
:101EC000C7941694D1F7032E3DE1440F551F661FAA
:101ED000771F3A95D1F7302D4C295D296E297F293E
:101EE0002897C880D980EA80FB80C824D924EA24B6
:101EF000FB24249788809980AA80BB808026912625
:101F0000A226B326C80CD91CEA1CFB1C46015701AB
:101F1000689414F8B694A794979487941694D1F77C
:101F20000B2EBBE1CC0CDD1CEE1CFF1CBA95D1F7CF
:101F3000B02DC828D928EA28FB28249788809980C2
:101F4000AA80BB8080269126A226B326E85DFD4F9D
:101F50000081118122813381082719272A273B27F5
:101F6000800E911EA21EB31E95018401E7E13695F5
:101F7000279517950795EA95D1F7F9E0880C991CF4
:101F8000AA1CBB1CFA95D1F7802A912AA22AB32A4F
:101F9000F10124E08192C38247838387892C9A2CA4
:101FA000AB2CBB24CD2CDE2CEF2CFF24452F562F41
:101FB000672F7727892F9A2FAB2FBB27215051F7F7
:101FC000DF91CF911F910F91FF90EF90DF90CF9015
:101FD000BF90AF909F908F907F906F905F904F9049
:101FE0003F902F9008958F929F92AF92BF92CF9281
:101FF000DF92EF92FF920F931F93CF93DF93FC0139
:10200000DB01009711F40C948E46109711F40C9498
:102010008E46283131054105510511F40C94B21B4F
:10202000203231054105510511F40C94602F203107
:1020300031054105510511F00C948E46CD90DD908F
:10204000ED90FC90139785E2C81A86E1D80A80E1EA
:10205000E80A8CE3F80ACC0CDD1CEE1CFF1CC11C4A
:10206000C082D182E282F3828CEFC81A89E2D80A58
:102070008BE3E80A87E7F80ACC0CDD1CEE1CFF1C9A
:10208000C11CC08ED18EE28EF38E87EDC81A8DE012
:10209000D80A86E7E80A88E1F80ACC0CDD1CEE1CB9
:1020A000FF1CC11CC0AAD1AAE2AAF3AA8DE9C81AD2
:1020B00088E7D80A86E0E80A89E3F80ACC0CDD1C38
:1020C000EE1CFF1CC11CEF01C85BDF4FC882D98228
:1020D000EA82FB8284E4C81A82E6D80A81E0E80A30
:1020E00081ECF80ACC0CDD1CEE1CFF1CC11C6896B0
:1020F000C882D982EA82FB8288EBC81A8FE9D80AA3
:1021000082EBE80A83E7F80ACC0CDD1CEE1CFF1C0E
:10211000C11C6896C882D982EA82FB8282E6C81A0C
:102120008DEDD80A80E6E80A87E8F80ACC0CDD1CB9
:10213000EE1CFF1CC11C6896C882D982EA82FB8211
:1021400084ECC81A89E8D80A87E6E80A80E9F80A20
:10215000CC0CDD1CEE1CFF1CC11C6896C882D98209
:10216000EA82FB828DE3C81A84E2D80A86E1E80A93
:1021700080E1F80ACC0CDD1CEE1CFF1CC11C68962B
:10218000C882D982EA82FB8288E7C81A8BEFD80A14
:1021900089E2E80A8BE3F80ACC0CDD1CEE1CFF1C7C
:1021A000C11C6896C882D982EA82FB8289E1C81A7A
:1021B00086EDD80A8DE0E80A86E7F80ACC0CDD1C2B
:1021C000EE1CFF1CC11C6896C882D982EA82FB8281
:1021D0008AE3C81A8CE9D80A88E7E80A86E0F80A90
:1021E000CC0CDD1CEE1CFF1CC11C6896C882D98279
:1021F000EA82FB8282ECC81A83E4D80A82E6E80A03
:1022000081E0F80ACC0CDD1CEE1CFF1CC11C68969A
:10221000C882D982EA82FB8284E7C81A87EBD80A8F
:102220008FE9E80A82EBF80ACC0CDD1CEE1CFF1CDF
:10223000C11C6896C882D982EA82FB8288E8C81AE3
:1022400081E6D80A8DEDE80A80E6F80ACC0CDD1CA0
:10225000EE1CFF1CC11C6896C882D982EA82FB82F0
:1022600081E9C81A83ECD80A89E8E80A87E6F80AFF
:10227000CC0CDD1CEE1CFF1CC11C6896C882D982E8
:10228000EA82FB8281E1C81A8CE3D80A84E2E80A78
:1022900086E1F80ACC0CDD1CEE1CFF1CC11C689604
:1022A000C882D982EA82FB828CE3C81A87E7D80AFF
:1022B0008BEFE80A89E2F80ACC0CDD1CEE1CFF1C4F
:1022C000C11C6896C882D982EA82FB8287E7C81A55
:1022D00088E1D80A86EDE80A8DE0F80ACC0CDD1C0E
:1022E000EE1CFF1CC11C6896C882D982EA82FB8260
:1022F00087E0C81A89E3D80A8CE9E80A88E7F80A6F
:10230000CC0CDD1CEE1CFF1CC11C6896C882D98257
:10231000EA82FB8282E0C81A81ECD80A83E4E80AE8
:1023200082E6F80ACC0CDD1CEE1CFF1CC11C689672
:10233000C882D982EA82FB8283EBC81A83E7D80A73
:1023400087EBE80A8FE9F80ACC0CDD1CEE1CFF1CB9
:10235000C11C6896C882D982EA82FB8281E6C81ACB
:1023600087E8D80A81E6E80A8DEDF80ACC0CDD1C76
:10237000EE1CFF1CC11C6896C882D982EA82FB82CF
:1023800088E6C81A80E9D80A83ECE80A89E8F80ADE
:10239000CC0CDD1CEE1CFF1CC11C6896C882D982C7
:1023A000EA82FB8214968D909D90AD90BC90179719
:1023B00089E4881A8CE2980A80E2A80A88E7B80AB9
:1023C000750164011DE1F694E794D794C7941A95BA
:1023D000D1F703E0880C991CAA1CBB1C0A95D1F705
:1023E0008C289D28AE28BF28848A958AA68AB78A19
:1023F00084869586A686B78684829582A682B782D1
:1024000087EF881A83E5980A86E7A80A8EEEB80A4D
:10241000750164018DE1F694E794D794C7948A9589
:10242000D1F793E0880C991CAA1CBB1C9A95D1F794
:102430008C289D28AE28BF2884A695A6A6A6B7A658
:1024400084A295A2A6A2B7A2848E958EA68EB78EE0
:102450008DEA881A8BE1980A8CEEA80A80E3B80A04
:10246000750164016DE1F694E794D794C7946A9579
:10247000D1F773E0880C991CAA1CBB1C7A95D1F784
:102480008C289D28AE28BF28C45ED14088829982BE
:10249000AA82BB8284AE95AEA6AEB7AE84AA95AA38
:1024A000A6AAB7AA89E3881A81EF980A8CE0A80A3D
:1024B00082E7B80A750164011DE1F694E794D794A8
:1024C000C7941A95D1F703E0880C991CAA1CBB1C71
:1024D0000A95D1F78C289D28AE28BF286896888257
:1024E0009982AA82BB82289788829982AA82BB821B
:1024F000289788829982AA82BB8288E8881A84EC0D
:10250000980A82E0A80A82E8B80A750164018DE1A0
:10251000F694E794D794C7948A95D1F793E0880C02
:10252000991CAA1CBB1C9A95D1F78C289D28AE2813
:10253000BF28A89688829982AA82BB82289788821F
:102540009982AA82BB82289788829982AA82BB82BA
:102550008FE6881A8FE3980A85E6A80A87EEB80AFC
:10256000750164016DE1F694E794D794C7946A9578
:10257000D1F773E0880C991CAA1CBB1C7A95D1F783
:102580008C289D28AE28BF28A89688829982AA8286
:10259000BB82289788829982AA82BB8228978882E8
:1025A0009982AA82BB8284EC881A8AEB980A81EC11
:1025B000A80A8EE0B80A750164011DE1F694E7945B
:1025C000D794C7941A95D1F703E0880C991CAA1CDC
:1025D000BB1C0A95D1F78C289D28AE28BF28A89649
:1025E00088829982AA82BB82289788829982AA824D
:1025F000BB82289788829982AA82BB8288E8881A3F
:1026000083E1980A8FECA80A80E2B80A7501640198
:102610008DE1F694E794D794C7948A95D1F793E027
:10262000880C991CAA1CBB1C9A95D1F78C289D2854
:10263000AE28BF28A89688829982AA82BB82289752
:1026400088829982AA82BB82289788829982AA82EC
:10265000BB8289E7881A88E4980A8CE2A80A80E29B
:10266000B80A750164016DE1F694E794D794C794B4
:102670006A95D1F773E0880C991CAA1CBB1C7A954B
:10268000D1F78C289D28AE28BF28A89688829982E9
:10269000AA82BB82289788829982AA82BB822897C5
:1026A00088829982AA82BB828FEE881A86EF980A66
:1026B00083E5A80A86E7B80A750164011DE1F6946E
:1026C000E794D794C7941A95D1F703E0880C991C26
:1026D000AA1CBB1C0A95D1F78C289D28AE28BF28C0
:1026E000A89688829982AA82BB822897888299823A
:1026F000AA82BB82289788829982AA82BB8281E3C0
:10270000881A8CEA980A8BE1A80A8CEEB80A75013F
:1027100064018DE1F694E794D794C7948A95D1F734
:1027200093E0880C991CAA1CBB1C9A95D1F78C28A5
:102730009D28AE28BF28A89688829982AA82BB824B
:10274000289788829982AA82BB8228978882998258
:10275000AA82BB8283E7881A88E3980A81EFA80AD5
:102760008CE0B80A750164016DE1F694E794D794A2
:10277000C7946A95D1F773E0880C991CAA1CBB1CFE
:102780007A95D1F78C289D28AE28BF28A8968882F4
:102790009982AA82BB82289788829982AA82BB8268
:1027A000289788829982AA82BB8283E8881A87E860
:1027B000980A84ECA80A82E0B80A750164011DE158
:1027C000F694E794D794C7941A95D1F703E0880C50
:1027D000991CAA1CBB1C0A95D1F78C289D28AE28F1
:1027E000BF28A89688829982AA82BB82289788826D
:1027F0009982AA82BB82289788829982AA82BB8208
:1028000088EE881A8EE6980A8FE3A80A85E6B80A49
:10281000750164018DE1F694E794D794C7948A9585
:10282000D1F793E0880C991CAA1CBB1C9A95D1F790
:102830008C289D28AE28BF28A89688829982AA82D3
:10284000BB82289788829982AA82BB822897888235
:102850009982AA82BB828FE0881A83EC980A8AEB5D
:10286000A80A81ECB80A750164016DE1F694E79459
:10287000D794C7946A95D1F773E0880C991CAA1C69
:10288000BB1C7A95D1F78C289D28AE28BF28A89626
:1028900088829982AA82BB82289788829982AA829A
:1028A000BB82289788829982AA82BB8281E2881A99
:1028B00087E8980A83E1A80A8FECB80A75016401D9
:1028C0001DE1F694E794D794C7941A95D1F703E0E5
:1028D000880C991CAA1CBB1C0A95D1F78C289D2832
:1028E000AE28BF28A89688829982AA82BB822897A0
:1028F00088829982AA82BB82289788829982AA823A
:10290000BB8281E2881A88E7980A88E4A80A8CE2E8
:10291000B80A750164018DE1F694E794D794C794E1
:102920008A95D1F793E0880C991CAA1CBB1C9A9538
:10293000D1F78C289D28AE28BF28A8968882998236
:10294000AA82BB82289788829982AA82BB82289712
:1029500088829982AA82BB8287E7881A8EEE980ABB
:1029600086EFA80A83E5B80A750164016DE1F69463
:10297000E794D794C7946A95D1F773E0880C991CB3
:10298000AA1CBB1C7A95D1F78C289D28AE28BF289D
:10299000A89688829982AA82BB8228978882998287
:1029A000AA82BB82289788829982AA82BB828DEEF6
:1029B000881A80E3980A8CEAA80A8BE1B80A7501A4
:1029C00064011DE1F694E794D794C7941A95D1F762
:1029D00003E0880C991CAA1CBB1C0A95D1F78C2813
:1029E0009D28AE28BF28A89688829982AA82BB8299
:1029F000289788829982AA82BB82289788829982A6
:102A0000AA82BB828DE0881A82E7980A88E3A80A26
:102A100081EFB80A750164018DE1F694E794D794CB
:102A2000C7948A95D1F793E0880C991CAA1CBB1C0B
:102A30009A95D1F78C289D28AE28BF28A896888221
:102A40009982AA82BB82289788829982AA82BB82B5
:102A5000289788829982AA82BB8283E0881A82E8BA
:102A6000980A87E8A80A84ECB80A750164016DE148
:102A7000F694E794D794C7946A95D1F773E0880CDD
:102A8000991CAA1CBB1C7A95D1F78C289D28AE28CE
:102A9000BF28A89688829982AA82BB8228978882BA
:102AA0009982AA82BB82289788829982AA82BB8255
:102AB00086E6881A87EE980A8EE6A80A8FE3B80A97
:102AC000750164011DE1F694E794D794C7941A95B3
:102AD000D1F703E0880C991CAA1CBB1C0A95D1F7FE
:102AE0008C289D28AE28BF28A89688829982AA8221
:102AF000BB82289788829982AA82BB822897888283
:102B00009982AA82BB8282EC881A8EE0980A83ECB2
:102B1000A80A8AEBB80A750164018DE1F694E7947E
:102B2000D794C7948A95D1F793E0880C991CAA1C76
:102B3000BB1C9A95D1F78C289D28AE28BF28A89653
:102B400088829982AA82BB82289788829982AA82E7
:102B5000BB82289788829982AA82BB8280ED881ADC
:102B600080E2980A87E8A80A83E1B80A750164013F
:102B70006DE1F694E794D794C7946A95D1F773E022
:102B8000880C991CAA1CBB1C7A95D1F78C289D280F
:102B9000AE28BF28A89688829982AA82BB822897ED
:102BA00088829982AA82BB82289788829982AA8287
:102BB000BB8218968D909D90AD90BC901B9781E93B
:102BC000881A88E5980A80E4A80A80EFB80A750197
:102BD00064011AE1F694E794D794C7941A95D1F753
:102BE00006E0880C991CAA1CBB1C0A95D1F78C28FE
:102BF0009D28AE28BF2880869186A286B3868EEE59
:102C0000881A87EA980A8CEEA80A8CEDB80A750132
:102C100064018AE1F694E794D794C7948A95D1F732
:102C200096E0880C991CAA1CBB1C9A95D1F78C289D
:102C30009D28AE28BF2880A291A2A2A2B3A289E5B6
:102C4000881A87E3980A88EDA80A81E6B80A750110
:102C500064016AE1F694E794D794C7946A95D1F732
:102C600076E0880C991CAA1CBB1C7A95D1F78C289D
:102C70009D28AE28BF2880AE91AEA2AEB3AE81E74C
:102C8000881A82EE980A89E1A80A84EEB80A7501CA
:102C900064011AE1F694E794D794C7941A95D1F792
:102CA00006E0880C991CAA1CBB1C0A95D1F78C283D
:102CB0009D28AE28BF28CC5DD14088829982AA8207
:102CC000BB8280E1881A89E8980A85E0A80A84E036
:102CD000B80A750164018AE1F694E794D794C79421
:102CE0008A95D1F796E0880C991CAA1CBB1C9A9572
:102CF000D1F78C289D28AE28BF28689688829982B3
:102D0000AA82BB828EED881A8EE7980A8AECA80AFE
:102D10008EECB80A750164016AE1F694E794D794E1
:102D2000C7946A95D1F776E0880C991CAA1CBB1C45
:102D30007A95D1F78C289D28AE28BF28689688827E
:102D40009982AA82BB8287E8881A85E7980A83E875
:102D5000A80A8DE1B80A750164011AE1F694E794B6
:102D6000D794C7941A95D1F706E0880C991CAA1C31
:102D7000BB1C0A95D1F78C289D28AE28BF286896E1
:102D800088829982AA82BB828FE0881A87E2980A99
:102D90008EE9A80A81E4B80A750164018AE1F69413
:102DA000E794D794C7948A95D1F796E0880C991C3C
:102DB000AA1CBB1C9A95D1F78C289D28AE28BF2849
:102DC000689688829982AA82BB8281EF881A80E9FC
:102DD000980A88E5A80A80E4B80A750164016AE1E6
:102DE000F694E794D794C7946A95D1F776E0880C67
:102DF000991CAA1CBB1C7A95D1F78C289D28AE285B
:102E0000BF28689688829982AA82BB828DED881A33
:102E10008DEE980A87EAA80A8CEEB80A750164015B
:102E20001AE1F694E794D794C7941A95D1F706E07F
:102E3000880C991CAA1CBB1C0A95D1F78C289D28CC
:102E4000AE28BF28689688829982AA82BB8282E6D1
:102E5000881A88E5980A87E3A80A88EDB80A7501F8
:102E600064018AE1F694E794D794C7948A95D1F7E0
:102E700096E0880C991CAA1CBB1C9A95D1F78C284B
:102E80009D28AE28BF28689688829982AA82BB8234
:102E900085EE881A80E7980A82EEA80A89E1B80AC6
:102EA000750164016AE1F694E794D794C7946A9532
:102EB000D1F776E0880C991CAA1CBB1C7A95D1F737
:102EC0008C289D28AE28BF28689688829982AA827D
:102ED000BB8285E0881A8FE0980A89E8A80A85E015
:102EE000B80A750164011AE1F694E794D794C7947F
:102EF0001A95D1F706E0880C991CAA1CBB1C0A95F0
:102F0000D1F78C289D28AE28BF28689688829982A0
:102F1000AA82BB828FEC881A8DED980A8EE7A80AE8
:102F20008AECB80A750164018AE1F694E794D794B3
:102F3000C7948A95D1F796E0880C991CAA1CBB1CF3
:102F40009A95D1F78C289D28AE28BF28689688824C
:102F50009982AA82BB828EE1881A86E8980A85E760
:102F6000A80A83E8B80A750164016AE1F694E79457
:102F7000D794C7946A95D1F776E0880C991CAA1C5F
:102F8000BB1C7A95D1F78C289D28AE28BF2868965F
:102F900088829982AA82BB8282E4881A8EE0980A8B
:102FA00087E2A80A8EE9B80A750164011AE1F6946D
:102FB000E794D794C7941A95D1F706E0880C991C2A
:102FC000AA1CBB1C0A95D1F78C289D28AE28BF28C7
:102FD000689688829982AA82BB8281E4881A80EFEF
:102FE000980A80E9A80A88E5B80A750164018AE1AF
:102FF000F694E794D794C7948A95D1F796E0880C15
:10300000991CAA1CBB1C9A95D1F78C289D28AE2828
:10301000BF28689688829982AA82BB828DEE881A20
:103020008CED980A8DEEA80A87EAB80A750164014A
:103030006AE1F694E794D794C7946A95D1F776E05D
:10304000880C991CAA1CBB1C7A95D1F78C289D284A
:10305000AE28BF28689688829982AA82BB8289EDB1
:10306000881A81E6980A88E5A80A87E3B80A7501F4
:1030700064011AE1F694E794D794C7941A95D1F7AE
:1030800006E0880C991CAA1CBB1C0A95D1F78C2859
:103090009D28AE28BF28689688829982AA82BB8222
:1030A0008AE1881A84EE980A80E7A80A82EEB80AB4
:1030B000750164018AE1F694E794D794C7948A95E0
:1030C000D1F796E0880C991CAA1CBB1C9A95D1F7E5
:1030D0008C289D28AE28BF28689688829982AA826B
:1030E000BB8286E0881A84E0980A8FE0A80A89E803
:1030F000B80A750164016AE1F694E794D794C7941D
:103100006A95D1F776E0880C991CAA1CBB1C7A95AD
:10311000D1F78C289D28AE28BF286896888299828E
:10312000AA82BB828BEC881A8EEC980A8DEDA80AD5
:103130008EE7B80A750164011AE1F694E794D79412
:10314000C7941A95D1F706E0880C991CAA1CBB1CE1
:103150000A95D1F78C289D28AE28BF2868968882CA
:103160009982AA82BB8284E8881A8DE1980A86E84F
:10317000A80A85E7B80A750164018AE1F694E79424
:10318000D794C7948A95D1F796E0880C991CAA1C0D
:10319000BB1C9A95D1F78C289D28AE28BF2868962D
:1031A00088829982AA82BB828FE9881A81E4980A70
:1031B0008EE0A80A87E2B80A750164016AE1F69414
:1031C000E794D794C7946A95D1F776E0880C991C58
:1031D000AA1CBB1C7A95D1F7C828D928EA28FB2855
:1031E0006896C882D982EA82FB821C968D919D9155
:1031F0000D90BC91A02D8252914BA048B04E6C0115
:103200007D0115E1F694E794D794C7941A95D1F708
:103210000BE0880F991FAA1FBB1F0A95D1F78C29B5
:103220009D29AE29BF29808B918BA28BB38B8C5D9E
:103230009F44A94DB94B6C017D0165E1F694E7947B
:10324000D794C7946A95D1F77BE0880F991FAA1F7E
:10325000BB1F7A95D1F78C299D29AE29BF2980A75C
:1032600091A7A2A7B3A7815B9E46A04BB34C6C016C
:103270007D0115E1F694E794D794C7941A95D1F798
:103280000BE0880F991FAA1FBB1F0A95D1F78C2945
:103290009D29AE29BF29C05FD14088839983AA8325
:1032A000BB83825E944CA343B84C6C017D0165E105
:1032B000F694E794D794C7946A95D1F77BE0880F8A
:1032C000991FAA1FBB1F7A95D1F78C299D29AE297A
:1032D000BF29689688839983AA83BB838F519241C3
:1032E000AB40B8406C017D0115E1F694E794D794AA
:1032F000C7941A95D1F70BE0880F991FAA1FBB1F1F
:103300000A95D1F78C299D29AE29BF296896888313
:103310009983AA83BB838C5B9D4FA449BD496C01F3
:103320007D0165E1F694E794D794C7946A95D1F747
:103330007BE0880F991FAA1FBB1F7A95D1F78C29B4
:103340009D29AE29BF29689688839983AA83BB8368
:103350008D509B4EA640BB436C017D0115E1F69458
:10336000E794D794C7941A95D1F70BE0880F991F6B
:10337000AA1FBB1F0A95D1F78C299D29AE29BF2909
:10338000689688839983AA83BB838D519E44AC43FE
:10339000B3486C017D0165E1F694E794D794C79436
:1033A0006A95D1F77BE0880F991FAA1FBB1F7A95FA
:1033B000D1F78C299D29AE29BF29689688839983E6
:1033C000AA83BB83815E9142A14BB0486C017D0111
:1033D00015E1F694E794D794C7941A95D1F70BE0CA
:1033E000880F991FAA1FBB1F0A95D1F78C299D2909
:1033F000AE29BF29689688839983AA83BB838A5B99
:103400009B4DAF44B94D6C017D0165E1F694E794A5
:10341000D794C7946A95D1F77BE0880F991FAA1FAC
:10342000BB1F7A95D1F78C299D29AE29BF296896B3
:1034300088839983AA83BB83845C904BAE46B04B50
:103440006C017D0115E1F694E794D794C7941A9521
:10345000D1F70BE0880F991FAA1FBB1F0A95D1F760
:103460008C299D29AE29BF29689688839983AA83D0
:10347000BB83895C914EA44CB3436C017D0165E133
:10348000F694E794D794C7946A95D1F77BE0880FB8
:10349000991FAA1FBB1F7A95D1F78C299D29AE29A8
:1034A000BF29689688839983AA83BB8389509E41EC
:1034B000A241BB406C017D0115E1F694E794D794DD
:1034C000C7941A95D1F70BE0880F991FAA1FBB1F4D
:1034D0000A95D1F78C299D29AE29BF296896888342
:1034E0009983AA83BB838E599B4BAD4FB4496C0122
:1034F0007D0165E1F694E794D794C7946A95D1F776
:103500007BE0880F991FAA1FBB1F7A95D1F78C29E2
:103510009D29AE29BF29689688839983AA83BB8396
:103520008C539C40AB4EB6406C017D0115E1F69486
:10353000E794D794C7941A95D1F70BE0880F991F99
:10354000AA1FBB1F0A95D1F78C299D29AE29BF2937
:10355000689688839983AA83BB8384589C41AE4430
:10356000BC436C017D0165E1F694E794D794C79460
:103570006A95D1F77BE0880F991FAA1FBB1F7A9528
:10358000D1F78C299D29AE29BF2968968883998314
:10359000AA83BB838158904EA142B14B6C017D013F
:1035A00015E1F694E794D794C7941A95D1F70BE0F8
:1035B000880F991FAA1FBB1F0A95D1F78C299D2937
:1035C000AE29BF29689688839983AA83BB838A5DC5
:1035D000994BAB4DBF446C017D0165E1F694E794D6
:1035E000D794C7946A95D1F77BE0880F991FAA1FDB
:1035F000BB1F7A95D1F78C299D29AE29BF296896E2
:1036000088839983AA83BB83815B934CA04BBE467E
:103610006C017D0115E1F694E794D794C7941A954F
:10362000D1F70BE0880F991FAA1FBB1F0A95D1F78E
:103630008C299D29AE29BF29689688839983AA83FE
:10364000BB838453984CA14EB44C6C017D0165E161
:10365000F694E794D794C7946A95D1F77BE0880FE6
:10366000991FAA1FBB1F7A95D1F78C299D29AE29D6
:10367000BF29689688839983AA83BB838C5098401E
:10368000AE41B2416C017D0115E1F694E794D79407
:10369000C7941A95D1F70BE0880F991FAA1FBB1F7B
:1036A0000A95D1F78C299D29AE29BF296896888370
:1036B0009983AA83BB8385599D49AB4BBD4F6C0150
:1036C0007D0165E1F694E794D794C7946A95D1F7A4
:1036D0007BE0880F991FAA1FBB1F7A95D1F78C2911
:1036E0009D29AE29BF29689688839983AA83BB83C5
:1036F00087509B43AC40BB4E6C017D0115E1F694B5
:10370000E794D794C7941A95D1F70BE0880F991FC7
:10371000AA1FBB1F0A95D1F78C299D29AE29BF2965
:10372000689688839983AA83BB838D539348AC4161
:10373000BE446C017D0165E1F694E794D794C7948B
:103740006A95D1F77BE0880F991FAA1FBB1F7A9556
:10375000D1F7C82AD92AEA2AFB2ADF01A85CBD4F83
:103760000C948046CD90DD90ED90FC90139785E20F
:10377000C81A86E1D80A80E1E80A8CE3F80ACC0C82
:10378000DD1CEE1CFF1CC11CC082D182E282F382D0
:103790008CEFC81A89E2D80A8BE3E80A87E7F80AAF
:1037A000CC0CDD1CEE1CFF1CC11CC08ED18EE28E29
:1037B000F38E87EDC81A8DE0D80A86E7E80A88E11B
:1037C000F80ACC0CDD1CEE1CFF1CC11CC0AAD1AA3F
:1037D000E2AAF3AA8DE9C81A88E7D80A86E0E80ABF
:1037E00089E3F80ACC0CDD1CEE1CFF1CC11CEF01A8
:1037F000C85BDF4FC882D982EA82FB8289E1C81A9E
:1038000086EBD80A85E1E80A8AEEF80ACC0CDD1CC2
:10381000EE1CFF1CC11C6896C882D982EA82FB821A
:1038200088EAC81A8EEBD80A84E4E80A8FE0F80A1E
:10383000CC0CDD1CEE1CFF1CC11C6896C882D98212
:10384000EA82FB8280E1C81A89E8D80A85E0E80AA2
:1038500084E0F80ACC0CDD1CEE1CFF1CC11C689631
:10386000C882D982EA82FB828EEDC81A8EE7D80A16
:103870008AECE80A8EECF80ACC0CDD1CEE1CFF1C6E
:10388000C11C6896C882D982EA82FB8287E8C81A7E
:1038900085E7D80A83E8E80A8DE1F80ACC0CDD1C3C
:1038A000EE1CFF1CC11C6896C882D982EA82FB828A
:1038B0008FE0C81A87E2D80A8EE9E80A81E4F80A9C
:1038C000CC0CDD1CEE1CFF1CC11C6896C882D98282
:1038D000EA82FB828BE3C81A86E8D80A8DE6E80AFA
:1038E00085E8F80ACC0CDD1CEE1CFF1CC11C689698
:1038F000C882D982EA82FB8284ECC81A89EAD80A93
:103900008FE2E80A81EDF80ACC0CDD1CEE1CFF1CEE
:10391000C11C6896C882D982EA82FB8282ECC81AEE
:1039200083E4D80A82E6E80A81E0F80ACC0CDD1CC0
:10393000EE1CFF1CC11C6896C882D982EA82FB82F9
:1039400084E7C81A87EBD80A8FE9E80A82EBF80AFD
:10395000CC0CDD1CEE1CFF1CC11C6896C882D982F1
:10396000EA82FB8288E8C81A81E6D80A8DEDE80A67
:1039700080E6F80ACC0CDD1CEE1CFF1CC11C68960E
:10398000C882D982EA82FB8281E9C81A83ECD80A0C
:1039900089E8E80A87E6F80ACC0CDD1CEE1CFF1C5F
:1039A000C11C6896C882D982EA82FB8282EAC81A60
:1039B0008EE8D80A81E6E80A8BE5F80ACC0CDD1C13
:1039C000EE1CFF1CC11C6896C882D982EA82FB8269
:1039D00085EFC81A80E7D80A8AEEE80A8BE4F80A6D
:1039E000CC0CDD1CEE1CFF1CC11C6896C882D98261
:1039F000EA82FB8281E4C81A80EFD80A80E9E80AEB
:103A000088E5F80ACC0CDD1CEE1CFF1CC11C689676
:103A1000C882D982EA82FB828DEEC81A8CEDD80A60
:103A20008DEEE80A87EAF80ACC0CDD1CEE1CFF1CC0
:103A3000C11C6896C882D982EA82FB8289EDC81AC5
:103A400081E6D80A88E5E80A87E3F80ACC0CDD1C91
:103A5000EE1CFF1CC11C6896C882D982EA82FB82D8
:103A60008AE1C81A84EED80A80E7E80A82EEF80AEA
:103A7000CC0CDD1CEE1CFF1CC11C6896C882D982D0
:103A8000EA82FB8287E5C81A88EAD80A83E6E80A50
:103A900088EDF80ACC0CDD1CEE1CFF1CC11C6896DE
:103AA000C882D982EA82FB8283E1C81A8DE3D80AF0
:103AB0008CE9E80A8AEFF80ACC0CDD1CEE1CFF1C2E
:103AC000C11C6896C882D982EA82FB8287E1C81A43
:103AD00080E1D80A8CE3E80A84E2F80ACC0CDD1C09
:103AE000EE1CFF1CC11C6896C882D982EA82FB8248
:103AF0008AE2C81A8BE3D80A87E7E80A8BEFF80A4C
:103B0000CC0CDD1CEE1CFF1CC11C6896C882D9823F
:103B1000EA82FB828EE0C81A86E7D80A88E1E80AC2
:103B200086EDF80ACC0CDD1CEE1CFF1CC11C68964F
:103B3000C882D982EA82FB8289E7C81A86E0D80A5D
:103B400089E3E80A8CE9F80ACC0CDD1CEE1CFF1CAA
:103B5000C11C6896C882D982EA82FB8214968D9035
:103B60009D90AD90BC90179789E4881A8CE2980AD2
:103B700080E2A80A88E7B80A750164011DE1F6949D
:103B8000E794D794C7941A95D1F703E0880C991C51
:103B9000AA1CBB1C0A95D1F78C289D28AE28BF28EB
:103BA00084829582A682B78287EF881A83E5980A75
:103BB00086E7A80A8EEEB80A750164018DE1F694D5
:103BC000E794D794C7948A95D1F793E0880C991C11
:103BD000AA1CBB1C9A95D1F78C289D28AE28BF281B
:103BE000848E958EA68EB78E8DEA881A8BE1980A00
:103BF0008CEEA80A80E3B80A750164016DE1F694C1
:103C0000E794D794C7946A95D1F773E0880C991C10
:103C1000AA1CBB1C7A95D1F78C289D28AE28BF28FA
:103C200084AA95AAA6AAB7AA89E3881A81EF980A56
:103C30008CE0A80A82E7B80A750164011DE1F694D8
:103C4000E794D794C7941A95D1F703E0880C991C90
:103C5000AA1CBB1C0A95D1F78C289D28AE28BF282A
:103C6000CC53D24088829982AA82BB8282E3881A8E
:103C70008CE6980A8BE2A80A84EDB80A7501640103
:103C80008DE1F694E794D794C7948A95D1F793E0A1
:103C9000880C991CAA1CBB1C9A95D1F78C289D28CE
:103CA000AE28BF28689688829982AA82BB828FE458
:103CB000881A8DE7980A89E8A80A8EE1B80A750182
:103CC00064016DE1F694E794D794C7946A95D1F7AF
:103CD00073E0880C991CAA1CBB1C7A95D1F78C2820
:103CE0009D28AE28BF28689688829982AA82BB82C6
:103CF0008FE1881A82E1980A8BE0A80A88E0B80A66
:103D0000750164011DE1F694E794D794C7941A9560
:103D1000D1F703E0880C991CAA1CBB1C0A95D1F7AB
:103D20008C289D28AE28BF28689688829982AA820E
:103D3000BB828CEB881A8DEF980A84E9A80A8DE97A
:103D4000B80A750164018DE1F694E794D794C7949D
:103D50008A95D1F793E0880C991CAA1CBB1C9A95F4
:103D6000D1F78C289D28AE28BF2868968882998232
:103D7000AA82BB828DE0881A8BEE980A86E0A80A98
:103D80008BE3B80A750164016DE1F694E794D7946A
:103D9000C7946A95D1F773E0880C991CAA1CBB1CC8
:103DA0007A95D1F78C289D28AE28BF2868968882FE
:103DB0009982AA82BB828DE1881A8EE4980A8CE3EC
:103DC000A80A83E8B80A750164011DE1F694E79436
:103DD000D794C7941A95D1F703E0880C991CAA1CB4
:103DE000BB1C0A95D1F78C289D28AE28BF28689661
:103DF00088829982AA82BB8286E7881A8CE0980A18
:103E00008BEDA80A8AE0B80A750164018DE1F69489
:103E1000E794D794C7948A95D1F793E0880C991CBE
:103E2000AA1CBB1C9A95D1F78C289D28AE28BF28C8
:103E3000689688829982AA82BB8288E8881A83E57C
:103E4000980A8FE5A80A82EAB80A750164016DE153
:103E5000F694E794D794C7946A95D1F773E0880CE9
:103E6000991CAA1CBB1C7A95D1F78C289D28AE28DA
:103E7000BF28689688829982AA82BB8283E8881AC2
:103E800087E8980A84ECA80A82E0B80A7501640100
:103E90001DE1F694E794D794C7941A95D1F703E0FF
:103EA000880C991CAA1CBB1C0A95D1F78C289D284C
:103EB000AE28BF28689688829982AA82BB8288EE43
:103EC000881A8EE6980A8FE3A80A85E6B80A750173
:103ED00064018DE1F694E794D794C7948A95D1F75D
:103EE00093E0880C991CAA1CBB1C9A95D1F78C28CE
:103EF0009D28AE28BF28689688829982AA82BB82B4
:103F00008FE0881A83EC980A8AEBA80A81ECB80A39
:103F1000750164016DE1F694E794D794C7946A95AE
:103F2000D1F773E0880C991CAA1CBB1C7A95D1F7B9
:103F30008C289D28AE28BF28689688829982AA82FC
:103F4000BB8281E2881A87E8980A83E1A80A8FEC8D
:103F5000B80A750164011DE1F694E794D794C794FB
:103F60001A95D1F703E0880C991CAA1CBB1C0A9572
:103F7000D1F78C289D28AE28BF2868968882998220
:103F8000AA82BB8283E4881A8DE1980A83ECA80A8E
:103F900086EBB80A750164018DE1F694E794D79435
:103FA000C7948A95D1F793E0880C991CAA1CBB1C76
:103FB0009A95D1F78C289D28AE28BF2868968882CC
:103FC0009982AA82BB8289EE881A81EE980A84EDD2
:103FD000A80A87E9B80A750164016DE1F694E794CF
:103FE000D794C7946A95D1F773E0880C991CAA1CE2
:103FF000BB1C7A95D1F78C289D28AE28BF286896DF
:1040000088829982AA82BB8281E8881A80EE980A07
:1040100081E2A80A81EBB80A750164011DE1F694FA
:10402000E794D794C7941A95D1F703E0880C991CAC
:10403000AA1CBB1C0A95D1F78C289D28AE28BF2846
:10404000689688829982AA82BB828AED881A89EB57
:10405000980A8BEDA80A8FE4B80A750164018DE116
:10406000F694E794D794C7948A95D1F793E0880C97
:10407000991CAA1CBB1C9A95D1F78C289D28AE28A8
:10408000BF28689688829982AA82BB8281EB881AAF
:1040900083EC980A80EBA80A8EE6B80A75016401E1
:1040A0006DE1F694E794D794C7946A95D1F773E0DD
:1040B000880C991CAA1CBB1C7A95D1F78C289D28CA
:1040C000AE28BF28689688829982AA82BB8284E340
:1040D000881A88EC980A81EEA80A84ECB80A75015F
:1040E00064011DE1F694E794D794C7941A95D1F72B
:1040F00003E0880C991CAA1CBB1C0A95D1F78C28DC
:104100009D28AE28BF28689688829982AA82BB82A1
:104110008EEA881A80E5980A87ECA80A80EBB80A2C
:10412000750164018DE1F694E794D794C7948A955C
:10413000D1F793E0880C991CAA1CBB1C9A95D1F767
:104140008C289D28AE28BF28689688829982AA82EA
:10415000BB8286E2881A8AE7980A88E3A80A85EF74
:10416000B80A750164016DE1F694E794D794C79499
:104170006A95D1F773E0880C991CAA1CBB1C7A9530
:10418000D1F78C289D28AE28BF286896888299820E
:10419000AA82BB828DE2881A80E2980A88E7A80A80
:1041A00088E4B80A750164011DE1F694E794D79498
:1041B000C7941A95D1F703E0880C991CAA1CBB1C64
:1041C0000A95D1F78C289D28AE28BF28689688824A
:1041D0009982AA82BB8284E5881A86E7980A8EEEC5
:1041E000A80A86EFB80A750164018DE1F694E79498
:1041F000D794C7948A95D1F793E0880C991CAA1C90
:10420000BB1C9A95D1F78C289D28AE28BF286896AC
:1042100088829982AA82BB828CE1881A8CEE980AE5
:1042200080E3A80A8CEAB80A750164016DE1F6948E
:10423000E794D794C7946A95D1F773E0880C991CDA
:10424000AA1CBB1C7A95D1F78C289D28AE28BF28C4
:10425000689688829982AA82BB8282EF881A8CE053
:10426000980A82E7A80A88E3B80A750164011DE18B
:10427000F694E794D794C7941A95D1F703E0880C85
:10428000991CAA1CBB1C0A95D1F7C828D928EA2872
:10429000FB286896C882D982EA82FB8218968D90A4
:1042A0009D90AD90BC901B9781E9881A88E5980A8B
:1042B00080E4A80A80EFB80A750164018AE1F694E7
:1042C000E794D794C7948A95D1F796E0880C991C07
:1042D000AA1CBB1C9A95D1F78C289D28AE28BF2814
:1042E00080869186A286B3868EEE881A87EA980A1F
:1042F0008CEEA80A8CEDB80A750164016AE1F694A7
:10430000E794D794C7946A95D1F776E0880C991C06
:10431000AA1CBB1C7A95D1F78C289D28AE28BF28F3
:1043200080A291A2A2A2B3A289E5881A87E3980A83
:1043300088EDA80A81E6B80A750164011AE1F694CD
:10434000E794D794C7941A95D1F706E0880C991C86
:10435000AA1CBB1C0A95D1F78C289D28AE28BF2823
:1043600080AE91AEA2AEB3AE81E7881A82EE980A13
:1043700089E1A80A84EEB80A750164018AE1F6941D
:10438000E794D794C7948A95D1F796E0880C991C46
:10439000AA1CBB1C9A95D1F78C289D28AE28BF2853
:1043A000CC53D24088829982AA82BB8284E6881A42
:1043B00088ED980A86E5A80A88EAB80A75016401BA
:1043C0006AE1F694E794D794C7946A95D1F776E0BA
:1043D000880C991CAA1CBB1C7A95D1F78C289D28A7
:1043E000AE28BF28689688829982AA82BB828DE90E
:1043F000881A8AEF980A82E1A80A8DE3B80A750143
:1044000064011AE1F694E794D794C7941A95D1F70A
:1044100006E0880C991CAA1CBB1C0A95D1F78C28B5
:104420009D28AE28BF28689688829982AA82BB827E
:104430008DE3881A84E2980A86E1A80A80E1B80A26
:10444000750164018AE1F694E794D794C7948A953C
:10445000D1F796E0880C991CAA1CBB1C9A95D1F741
:104460008C289D28AE28BF28689688829982AA82C7
:10447000BB8288E7881A8BEF980A89E2A80A8BE347
:10448000B80A750164016AE1F694E794D794C79479
:104490006A95D1F776E0880C991CAA1CBB1C7A950A
:1044A000D1F78C289D28AE28BF28689688829982EB
:1044B000AA82BB8289E1881A86ED980A8DE0A80A53
:1044C00086E7B80A750164011AE1F694E794D79477
:1044D000C7941A95D1F706E0880C991CAA1CBB1C3E
:1044E0000A95D1F78C289D28AE28BF286896888227
:1044F0009982AA82BB828AE3881A8CE9980A88E7A3
:10450000A80A86E0B80A750164018AE1F694E79486
:10451000D794C7948A95D1F796E0880C991CAA1C69
:10452000BB1C9A95D1F78C289D28AE28BF28689689
:1045300088829982AA82BB828BEE881A88E1980AC7
:1045400086EBA80A85E1B80A750164016AE1F69470
:10455000E794D794C7946A95D1F776E0880C991CB4
:10456000AA1CBB1C7A95D1F78C289D28AE28BF28A1
:10457000689688829982AA82BB8280E1881A87EA3B
:10458000980A8EEBA80A84E4B80A750164011AE15E
:10459000F694E794D794C7941A95D1F706E0880C5F
:1045A000991CAA1CBB1C0A95D1F78C289D28AE2803
:1045B000BF28689688829982AA82BB8285E0881A81
:1045C0008FE0980A89E8A80A85E0B80A75016401B5
:1045D0008AE1F694E794D794C7948A95D1F796E048
:1045E000880C991CAA1CBB1C9A95D1F78C289D2875
:1045F000AE28BF28689688829982AA82BB828FECF7
:10460000881A8DED980A8EE7A80A8AECB80A750117
:1046100064016AE1F694E794D794C7946A95D1F758
:1046200076E0880C991CAA1CBB1C7A95D1F78C28C3
:104630009D28AE28BF28689688829982AA82BB826C
:104640008EE1881A86E8980A85E7A80A83E8B80AFE
:10465000750164011AE1F694E794D794C7941A950A
:10466000D1F706E0880C991CAA1CBB1C0A95D1F74F
:104670008C289D28AE28BF28689688829982AA82B5
:10468000BB8282E4881A8EE0980A87E2A80A8EE943
:10469000B80A750164018AE1F694E794D794C79447
:1046A0008A95D1F796E0880C991CAA1CBB1C9A9598
:1046B000D1F78C289D28AE28BF28689688829982D9
:1046C000AA82BB8286E8881A8AE3980A86E8A80A42
:1046D0008DE6B80A750164016AE1F694E794D7940F
:1046E000C7946A95D1F776E0880C991CAA1CBB1C6C
:1046F0007A95D1F78C289D28AE28BF2868968882A5
:104700009982AA82BB8282ED881A83EC980A89EA90
:10471000A80A8FE2B80A750164011AE1F694E794D9
:10472000D794C7941A95D1F706E0880C991CAA1C57
:10473000BB1C0A95D1F78C289D28AE28BF28689607
:1047400088829982AA82BB8282E0881A81EC980AC8
:1047500083E4A80A82E6B80A750164018AE1F69446
:10476000E794D794C7948A95D1F796E0880C991C62
:10477000AA1CBB1C9A95D1F78C289D28AE28BF286F
:10478000689688829982AA82BB8283EB881A83E723
:10479000980A87EBA80A8FE9B80A750164016AE1F3
:1047A000F694E794D794C7946A95D1F776E0880C8D
:1047B000991CAA1CBB1C7A95D1F78C289D28AE2881
:1047C000BF28689688829982AA82BB8281E6881A6D
:1047D00087E8980A81E6A80A8DEDB80A7501640198
:1047E0001AE1F694E794D794C7941A95D1F706E0A6
:1047F000880C991CAA1CBB1C0A95D1F78C289D28F3
:10480000AE28BF28689688829982AA82BB8288E6F1
:10481000881A80E9980A83ECA80A89E8B80A750121
:1048200064018AE1F694E794D794C7948A95D1F706
:1048300096E0880C991CAA1CBB1C9A95D1F78C2871
:104840009D28AE28BF28689688829982AA82BB825A
:104850008CE5881A81EA980A8EE8A80A81E6B80AE7
:10486000750164016AE1F694E794D794C7946A9558
:10487000D1F776E0880C991CAA1CBB1C7A95D1F75D
:104880008C289D28AE28BF28689688829982AA82A3
:10489000BB828CE4881A84EF980A80E7A80A8AEE23
:1048A000B80A750164011AE1F694E794D794C794A5
:1048B0001A95D1F706E0880C991CAA1CBB1C0A9516
:1048C000D1F78C289D28AE28BF28689688829982C7
:1048D000AA82BB8289E5881A80E4980A80EFA80A38
:1048E00080E9B80A750164018AE1F694E794D794E7
:1048F000C7948A95D1F796E0880C991CAA1CBB1C1A
:104900009A95D1F78C289D28AE28BF286896888272
:104910009982AA82BB8288EA881A8CEE980A8CED6A
:10492000A80A8DEEB80A750164016AE1F694E7946D
:10493000D794C7946A95D1F776E0880C991CAA1C85
:10494000BB1C7A95D1F78C289D28AE28BF28689685
:1049500088829982AA82BB8288E3881A88ED980AA5
:1049600081E6A80A88E5B80A750164011AE1F6949F
:10497000E794D794C7941A95D1F706E0880C991C50
:10498000AA1CBB1C0A95D1F78C289D28AE28BF28ED
:10499000689688829982AA82BB8283EE881A89E10E
:1049A000980A84EEA80A80E7B80A750164018AE1D2
:1049B000F694E794D794C7948A95D1F796E0880C3B
:1049C000991CAA1CBB1C9A95D1F7C828D928EA289B
:1049D000FB286896C882D982EA82FB821C968D9059
:1049E0009D90AD90BC901F9782E2881A81EB980A47
:1049F00080E8A80A80EEB80A7501640165E1F694C2
:104A0000E794D794C7946A95D1F77BE0880C991CFA
:104A1000AA1CBB1C7A95D1F78C289D28AE28BF28EC
:104A200084869586A686B7868CED881A8FE4980AC8
:104A300089EDA80A89EBB80A7501640115E1F694BD
:104A4000E794D794C7941A95D1F70BE0880C991C7A
:104A5000AA1CBB1C0A95D1F78C289D28AE28BF281C
:104A600084A295A2A6A2B7A281EB881A8EE6980A24
:104A700080EBA80A83ECB80A7501640185E1F6941D
:104A8000E794D794C7948A95D1F79BE0880C991C3A
:104A9000AA1CBB1C9A95D1F78C289D28AE28BF284C
:104AA00084AE95AEA6AEB7AE82EE881A84EC980AB4
:104AB00083E3A80A88ECB80A7501640165E1F694FD
:104AC000E794D794C7946A95D1F77BE0880C991C3A
:104AD000AA1CBB1C7A95D1F78C289D28AE28BF282C
:104AE000CC53D24088829982AA82BB8288EC881AF1
:104AF00080EB980A8DEAA80A80E5B80A750164017E
:104B000015E1F694E794D794C7941A95D1F70BE082
:104B1000880C991CAA1CBB1C0A95D1F78C289D28CF
:104B2000AE28BF28689688829982AA82BB8289E3D0
:104B3000881A85EF980A85E2A80A8AE7B80A7501FB
:104B4000640185E1F694E794D794C7948A95D1F7E8
:104B50009BE0880C991CAA1CBB1C9A95D1F78C2849
:104B60009D28AE28BF28689688829982AA82BB8237
:104B700089E7881A88E4980A8CE2A80A80E2B80AD1
:104B80007501640165E1F694E794D794C7946A953A
:104B9000D1F77BE0880C991CAA1CBB1C7A95D1F735
:104BA0008C289D28AE28BF28689688829982AA8280
:104BB000BB828FEE881A86EF980A83E5A80A86E7FB
:104BC000B80A7501640115E1F694E794D794C79487
:104BD0001A95D1F70BE0880C991CAA1CBB1C0A95EE
:104BE000D1F78C289D28AE28BF28689688829982A4
:104BF000AA82BB8281E3881A8CEA980A8BE1A80A10
:104C00008CEEB80A7501640185E1F694E794D794B7
:104C1000C7948A95D1F79BE0880C991CAA1CBB1CF1
:104C20009A95D1F78C289D28AE28BF28689688824F
:104C30009982AA82BB8283E7881A88E3980A81EF67
:104C4000A80A8CE0B80A7501640165E1F694E7945E
:104C5000D794C7946A95D1F77BE0880C991CAA1C5D
:104C6000BB1C7A95D1F78C289D28AE28BF28689662
:104C700088829982AA82BB8285ED881A81E3980A8C
:104C80008CE6A80A8BE2B80A7501640115E1F69476
:104C9000E794D794C7941A95D1F70BE0880C991C28
:104CA000AA1CBB1C0A95D1F78C289D28AE28BF28CA
:104CB000689688829982AA82BB828FE1881A8EE4E4
:104CC000980A8DE7A80A89E8B80A7501640185E1A8
:104CD000F694E794D794C7948A95D1F79BE0880C13
:104CE000991CAA1CBB1C9A95D1F78C289D28AE282C
:104CF000BF28689688829982AA82BB8289E0881A36
:104D00008EE1980A82E1A80A8BE0B80A7501640175
:104D100065E1F694E794D794C7946A95D1F77BE060
:104D2000880C991CAA1CBB1C7A95D1F78C289D284D
:104D3000AE28BF28689688829982AA82BB828EE9B3
:104D4000881A8BEB980A8DEFA80A84E9B80A7501D6
:104D5000640115E1F694E794D794C7941A95D1F7B6
:104D60000BE0880C991CAA1CBB1C0A95D1F78C2857
:104D70009D28AE28BF28689688829982AA82BB8225
:104D80008CE3881A8CE0980A8BEEA80A86E0B80AB1
:104D90007501640185E1F694E794D794C7948A95E8
:104DA000D1F79BE0880C991CAA1CBB1C9A95D1F7E3
:104DB0008C289D28AE28BF28689688829982AA826E
:104DC000BB8284E8881A8CE1980A8EE4A80A8CE3F6
:104DD000B80A7501640165E1F694E794D794C79425
:104DE0006A95D1F77BE0880C991CAA1CBB1C7A95AC
:104DF000D1F78C289D28AE28BF2868968882998292
:104E0000AA82BB828BE0881A85E7980A8CE0A80A00
:104E10008BEDB80A7501640115E1F694E794D79417
:104E2000C7941A95D1F70BE0880C991CAA1CBB1CDF
:104E30000A95D1F78C289D28AE28BF2868968882CD
:104E40009982AA82BB8283EA881A87E8980A83E556
:104E5000A80A8FE5B80A7501640185E1F694E79424
:104E6000D794C7948A95D1F79BE0880C991CAA1C0B
:104E7000BB1C9A95D1F78C289D28AE28BF28689630
:104E800088829982AA82BB8283E0881A82E8980A83
:104E900087E8A80A84ECB80A7501640165E1F69414
:104EA000E794D794C7946A95D1F77BE0880C991C56
:104EB000AA1CBB1C7A95D1F78C289D28AE28BF2848
:104EC000689688829982AA82BB8286E6881A87EED3
:104ED000980A8EE6A80A8FE3B80A7501640115E105
:104EE000F694E794D794C7941A95D1F70BE0880C01
:104EF000991CAA1CBB1C0A95D1F78C289D28AE28AA
:104F0000BF28689688829982AA82BB8282EC881A1E
:104F10008EE0980A83ECA80A8AEBB80A750164014E
:104F200085E1F694E794D794C7948A95D1F79BE0EE
:104F3000880C991CAA1CBB1C9A95D1F78C289D281B
:104F4000AE28BF28689688829982AA82BB8280EDAB
:104F5000881A80E2980A87E8A80A83E1B80A7501EE
:104F6000640165E1F694E794D794C7946A95D1F704
:104F70007BE0880C991CAA1CBB1C7A95D1F78C2865
:104F80009D28AE28BF28689688829982AA82BB8213
:104F900087EB881A82E4980A8DE1A80A83ECB80AA4
:104FA0007501640115E1F694E794D794C7941A95B6
:104FB000D1F70BE0880C991CAA1CBB1C0A95D1F7F1
:104FC0008C289D28AE28BF28689688829982AA825C
:104FD000BB8288E9881A88EE980A81EEA80A84EDD7
:104FE000B80A7501640185E1F694E794D794C794F3
:104FF0008A95D1F79BE0880C991CAA1CBB1C9A953A
:10500000D1F78C289D28AE28BF286896888299827F
:10501000AA82BB8282EB881A80E8980A80EEA80AEE
:1050200081E2B80A7501640165E1F694E794D794CA
:10503000C7946A95D1F77BE0880C991CAA1CBB1C0D
:105040007A95D1F78C289D28AE28BF28689688824B
:105050009982AA82BB8280E5881A89ED980A89EB39
:10506000A80A8BEDB80A7501640115E1F694E7947E
:10507000D794C7941A95D1F70BE0880C991CAA1CF9
:10508000BB1C0A95D1F78C289D28AE28BF286896AE
:1050900088829982AA82BB828FE6881A80EB980A5E
:1050A00083ECA80A80EBB80A7501640185E1F694E7
:1050B000E794D794C7948A95D1F79BE0880C991C04
:1050C000AA1CBB1C9A95D1F78C289D28AE28BF2816
:1050D000689688829982AA82BB8285EC881A83E3CB
:1050E000980A88ECA80A81EEB80A7501640165E1A6
:1050F000F694E794D794C7946A95D1F77BE0880C2F
:10510000991CAA1CBB1C7A95D1F7C828D928EA2873
:10511000FB286896C882D982EA82FB8250968D90DD
:105120009D90AD90BC90539784E4881A82E6980ACB
:1051300081E0A80A81ECB80A7501640113E1F694D4
:10514000E794D794C7941A95D1F70DE0880C991C71
:10515000AA1CBB1C0A95D1F78C289D28AE28BF2815
:10516000808A918AA28AB38A88EB881A8FE9980A82
:1051700082EBA80A83E7B80A7501640183E1F6941B
:10518000E794D794C7948A95D1F79DE0880C991C31
:10519000AA1CBB1C9A95D1F78C289D28AE28BF2845
:1051A00080A691A6A2A6B3A682E6881A8DED980ADB
:1051B00080E6A80A87E8B80A7501640163E1F694FD
:1051C000E794D794C7946A95D1F77DE0880C991C31
:1051D000AA1CBB1C7A95D1F78C289D28AE28BF2825
:1051E000C455D24088829982AA82BB8284EC881AF4
:1051F00089E8980A87E6A80A80E9B80A7501640177
:1052000013E1F694E794D794C7941A95D1F70DE07B
:10521000880C991CAA1CBB1C0A95D1F78C289D28C8
:10522000AE28BF28689688829982AA82BB828FE8BE
:10523000881A81E6980A8BE5A80A81EAB80A7501FE
:10524000640183E1F694E794D794C7948A95D1F7E3
:105250009DE0880C991CAA1CBB1C9A95D1F78C2840
:105260009D28AE28BF28689688829982AA82BB8230
:1052700081E7881A8AEE980A8BE4A80A84EFB80AB4
:105280007501640163E1F694E794D794C7946A9535
:10529000D1F77DE0880C991CAA1CBB1C7A95D1F72C
:1052A0008C289D28AE28BF28689688829982AA8279
:1052B000BB8281EF881A80E9980A88E5A80A80E411
:1052C000B80A7501640113E1F694E794D794C79482
:1052D0001A95D1F70DE0880C991CAA1CBB1C0A95E5
:1052E000D1F78C289D28AE28BF286896888299829D
:1052F000AA82BB828DED881A8DEE980A87EAA80AE9
:105300008CEEB80A7501640183E1F694E794D794B2
:10531000C7948A95D1F79DE0880C991CAA1CBB1CE8
:105320009A95D1F78C289D28AE28BF286896888248
:105330009982AA82BB8282E6881A88E5980A87E366
:10534000A80A88EDB80A7501640163E1F694E79450
:10535000D794C7946A95D1F77DE0880C991CAA1C54
:10536000BB1C7A95D1F78C289D28AE28BF2868965B
:1053700088829982AA82BB8285EE881A80E7980A81
:1053800082EEA80A89E1B80A7501640113E1F69476
:10539000E794D794C7941A95D1F70DE0880C991C1F
:1053A000AA1CBB1C0A95D1F78C289D28AE28BF28C3
:1053B000689688829982AA82BB8289EA881A83E6E3
:1053C000980A88EDA80A86E5B80A7501640183E1A8
:1053D000F694E794D794C7948A95D1F79DE0880C0A
:1053E000991CAA1CBB1C9A95D1F78C289D28AE2825
:1053F000BF28689688829982AA82BB828EE3881A27
:105400008CE9980A8AEFA80A82E1B80A750164015A
:1054100063E1F694E794D794C7946A95D1F77DE059
:10542000880C991CAA1CBB1C7A95D1F78C289D2846
:10543000AE28BF28689688829982AA82BB8281E1C1
:10544000881A8CE3980A84E2A80A86E1B80A7501F2
:10545000640113E1F694E794D794C7941A95D1F7B1
:105460000DE0880C991CAA1CBB1C0A95D1F78C284E
:105470009D28AE28BF28689688829982AA82BB821E
:105480008CE3881A87E7980A8BEFA80A89E2B80AA2
:105490007501640183E1F694E794D794C7948A95E3
:1054A000D1F79DE0880C991CAA1CBB1C9A95D1F7DA
:1054B0008C289D28AE28BF28689688829982AA8267
:1054C000BB8287E7881A88E1980A86EDA80A8DE0F2
:1054D000B80A7501640163E1F694E794D794C79420
:1054E0006A95D1F77DE0880C991CAA1CBB1C7A95A3
:1054F000D1F78C289D28AE28BF286896888299828B
:10550000AA82BB8287E0881A89E3980A8CE9A80AF4
:1055100088E7B80A7501640113E1F694E794D7941B
:10552000C7941A95D1F70DE0880C991CAA1CBB1CD6
:105530000A95D1F78C289D28AE28BF2868968882C6
:105540009982AA82BB8286E1881A8AEE980A88E14B
:10555000A80A86EBB80A7501640183E1F694E79422
:10556000D794C7948A95D1F79DE0880C991CAA1C02
:10557000BB1C9A95D1F78C289D28AE28BF28689629
:1055800088829982AA82BB8285E4881A8FE0980A71
:1055900087EAA80A8EEBB80A7501640163E1F69404
:1055A000E794D794C7946A95D1F77DE0880C991C4D
:1055B000AA1CBB1C7A95D1F78C289D28AE28BF2841
:1055C000689688829982AA82BB8286E0881A84E0E3
:1055D000980A8FE0A80A89E8B80A7501640113E106
:1055E000F694E794D794C7941A95D1F70DE0880CF8
:1055F000991CAA1CBB1C0A95D1F78C289D28AE28A3
:10560000BF28689688829982AA82BB828BEC881A0E
:105610008EEC980A8DEDA80A8EE7B80A7501640130
:1056200083E1F694E794D794C7948A95D1F79DE0E7
:10563000880C991CAA1CBB1C9A95D1F78C289D2814
:10564000AE28BF28689688829982AA82BB8284E8A5
:10565000881A8DE1980A86E8A80A85E7B80A7501D4
:10566000640163E1F694E794D794C7946A95D1F7FF
:105670007DE0880C991CAA1CBB1C7A95D1F78C285C
:105680009D28AE28BF28689688829982AA82BB820C
:105690008FE9881A81E4980A8EE0A80A87E2B80A9E
:1056A0007501640113E1F694E794D794C7941A95B1
:1056B000D1F70DE0880C991CAA1CBB1C0A95D1F7E8
:1056C0008C289D28AE28BF28689688829982AA8255
:1056D000BB828EE6881A85E8980A8AE3A80A86E8DB
:1056E000B80A7501640183E1F694E794D794C794EE
:1056F0008A95D1F79DE0880C991CAA1CBB1C9A9531
:10570000D1F78C289D28AE28BF2868968882998278
:10571000AA82BB8280E3881A81ED980A83ECA80AEA
:1057200089EAB80A7501640163E1F694E794D794B5
:10573000C7946A95D1F77DE0880C991CAA1CBB1C04
:105740007A95D1F78C289D28AE28BF286896888244
:105750009982AA82BB8283E6881A81E0980A81EC4A
:10576000A80A83E4B80A7501640113E1F694E7948A
:10577000D794C7941A95D1F70DE0880C991CAA1CF0
:10578000BB1C0A95D1F78C289D28AE28BF286896A7
:1057900088829982AA82BB8280EA881A82EB980A60
:1057A00083E7A80A87EBB80A7501640183E1F694E0
:1057B000E794D794C7948A95D1F79DE0880C991CFB
:1057C000AA1CBB1C9A95D1F78C289D28AE28BF280F
:1057D000689688829982AA82BB828EED881A80E6BA
:1057E000980A87E8A80A81E6B80A7501640163E1AE
:1057F000F694E794D794C7946A95D1F77DE0880C26
:10580000991CAA1CBB1C7A95D1F78C289D28AE2820
:10581000BF28689688829982AA82BB828AE8881A01
:1058200087E6980A80E9A80A83ECB80A7501640142
:1058300013E1F694E794D794C7941A95D1F70DE045
:10584000880C991CAA1CBB1C0A95D1F7C828D9281A
:10585000EA28FB286896C882D982EA82FB8254969D
:105860008D919D910D90BC91A02D8858944CA24093
:10587000B2486C017D016FE0F694E794D794C79429
:105880006A95D1F771E1880F991FAA1FBB1F7A95FE
:10589000D1F78C299D29AE29BF29848B958BA68BA6
:1058A000B78B8F569F43A546B74E6C017D011FE015
:1058B000F694E794D794C7941A95D1F701E1880F2D
:1058C000991FAA1FBB1F0A95D1F78C299D29AE29C4
:1058D000BF2984A795A7A6A7B7A7845C9A4BA14C1C
:1058E000BE406C017D016FE0F694E794D794C794B5
:1058F0006A95D1F771E1880F991FAA1FBB1F7A958E
:10590000D1F78C299D29AE29BF29C455D24088835F
:105910009983AA83BB8388589341AF4CB0426C01F2
:105920007D011FE0F694E794D794C7941A95D1F7B8
:1059300001E1880F991FAA1FBB1F0A95D1F78C2977
:105940009D29AE29BF29689688839983AA83BB8342
:105950008E51934CA64BB2446C017D016FE0F694DE
:10596000E794D794C7946A95D1F771E1880F991F8E
:10597000AA1FBB1F7A95D1F78C299D29AE29BF2973
:10598000689688839983AA83BB83825E944DA749D6
:10599000B84E6C017D011FE0F694E794D794C7944C
:1059A0001A95D1F701E1880F991FAA1FBB1F0A950D
:1059B000D1F78C299D29AE29BF29689688839983C0
:1059C000AA83BB83815E9142A14BB0486C017D01EB
:1059D0006FE0F694E794D794C7946A95D1F771E194
:1059E000880F991FAA1FBB1F7A95D1F78C299D2973
:1059F000AE29BF29689688839983AA83BB838A5B73
:105A00009B4DAF44B94D6C017D011FE0F694E794C6
:105A1000D794C7941A95D1F701E1880F991FAA1F4F
:105A2000BB1F0A95D1F78C299D29AE29BF296896FD
:105A300088839983AA83BB83845C904BAE46B04B2A
:105A40006C017D016FE0F694E794D794C7946A9552
:105A5000D1F771E1880F991FAA1FBB1F7A95D1F763
:105A60008C299D29AE29BF29689688839983AA83AA
:105A7000BB83895C914EA44CB3436C017D011FE054
:105A8000F694E794D794C7941A95D1F701E1880F5B
:105A9000991FAA1FBB1F0A95D1F78C299D29AE29F2
:105AA000BF29689688839983AA83BB838155974CC5
:105AB000A04BBD4A6C017D016FE0F694E794D7944A
:105AC000C7946A95D1F771E1880F991FAA1FBB1F70
:105AD0007A95D1F78C299D29AE29BF2968968883AC
